:1000000028C005C104C103C102C101C100C1FFC0B4
:10001000FEC0FDC0FCC0FBC0FAC0F9C0F8C0F7C00C
:10002000F6C0F5C0F4C0F3C0F2C0F1C0F0C0EFC03C
:10003000EEC0EDC0A1C0A4C0A7C0AAC0ADC0B0C0F2
:10004000B3C0B6C0B9C0BCC0BFC0C2C03F003F044F
:10005000800011241FBECFEFCDBFDFE3DEBFECE495
:10006000F0E040E017C0B591A5913591259105913B
:1000700007FD0CC095918591EF01F92FE82F0590B0
:100080000D92A217B307D9F7FE0104C01D92A21763
:10009000B307E1F7E135F40731F703D000C0F89476
:0200A000FFCF90
:1000A200ADD09DD01092033F80E054D087E893E119
:1000B2000197F1F700C000008091480480FF17C04B
:1000C2008091023F882361F08091033F8F5F80938C
:1000D200033F40D08091033F8D3010F01092033FD8
:1000E2001092023F1092003F1092013FDFCF8091A9
:1000F200003F9091013F893E23E09207C0F00197B3
:100102008093003F9093013F8FE493EC0197F1F7C6
:1001120000C000008091033F8F5F8093033F1AD09D
:100122008091033F8D3060F01092033F09C0C39766
:1001320038F08091023F811103C081E08093023F39
:100142008091003F9091013F01968093003F9093F0
:04015200013FACCFEE
:10015600E82F8EEF809306048FE3809326048E2F7C
:1001660090E0FC013197EC30F10598F5E65EFF4F23
:10017600099484E080930504089588E0809305043B
:10018600089580E180930504089580E28093050434
:10019600089580E480930504089580E8809305041B
:1001A600089581E080932504089582E080932504D4
:1001B600089584E080932504089588E080932504BB
:1001C600089580E180932504089580E280932504B4
:0A01D600089582E080930504089567
:1001E0008EEF809301048FE380932104E0E4F4E038
:0E01F00083E0828388E0808B8CE08183089519
:1001FE0088ED84BFE0E6F0E0108284BF118208959E
:02020E00F8CE28
:00000001FF
