:100000000C9459000C94130A0C94130A0C94130AC0
:100010000C94130A0C94130A0C94DB080C94130A26
:100020000C94130A0C94130A0C94130A0C94130ADC
:100030000C94130A0C94130A0C94130A0C94130ACC
:100040000C94130A0C94130A0C94130A0C94130ABC
:100050000C942C090C94130A0C94130A0C94130A94
:100060000C94130A0C94130A0C94130A0C94130A9C
:100070000C94130A0C94130A0C94130A8D0791071D
:10008000950799079D07A107A507A907AD07B10720
:10009000B507B90738003818803818384000142AD6
:1000A0003840384E80384E384F001452384F385050
:1000B000800011241FBECFEFCDBFDFE3DEBFE4E938
:1000C000F0E040E017C0B591A591359125910591DB
:1000D00007FD0CC095918591EF01F92FE82F059050
:1000E0000D92A217B307D9F7FE0104C01D92A21703
:1000F000B307E1F7E13BF40731F70E9435060C94B2
:060100008100F894FFCF1E
:100106002F923F924F925F926F927F928F929F9221
:10011600AF92BF92CF92DF92EF92FF920F931F930F
:10012600CF93DF93009709F47EC3EC01A12CB12C89
:10013600812C912C212CD12C5524539433E0C32EA1
:1001460045E8642E56E8752E62E0362E78E0472E96
:10015600EA81FB81808191818816990608F0A6C103
:100166007501EE0CFF1CEC81FD81EE0DFF1DA281D9
:10017600B3819C919E7109F050820C811D810E0DF8
:100186001F1DD8018C91843009F49EC038F482304A
:10019600D1F008F045C0813059F081C1853809F4A5
:1001A600BFC0863809F4F5C0873009F078C136C17A
:1001B600911167C1F80130828C819D81FC01EE0DA1
:1001C600FF1D41825EC1D80111962C911197222301
:1001D60029F11296ED91FC911397253018F0818143
:1001E60092810EC0D80114968D919C9115974181EC
:1001F60052818417950769F04817590730F401971B
:1002060014968D939C93159704C00196F8018483E8
:1002160095832150D80111962C9333C1F8012DC135
:10022600D80114962D913C9115971296ED91FC915B
:100236001397418152812417350709F430C18E8105
:100246009F8142175307F8F4EA81FB81241B350B83
:10025600DC01AA0DBB1D8C9190E0058002C095952E
:1002660087950A94E2F799272817390708F417C1E2
:100276008481882309F413C187E0F8018083EA8129
:10028600FB8124811AC0FC01EA0DFB1D421B530BA6
:10029600808190E04817590708F401C182818823BC
:1002A60031F0B401CE010E94A7068111F8C0E4E046
:1002B600D801EC93EA81FB8122818C819D81FC012E
:1002C600EE0DFF1D2183DDC0D80114962D913C91C2
:1002D60015971296ED91FC91139781819281821761
:1002E600930708F4BBC0EE81FF81EA0DFB1D821B5C
:1002F600930B208130E02817390708F0C5C08281AA
:10030600882331F0B401CE010E94A7068111C7C02F
:10031600F8018181882309F46AC081508183B1C0C4
:10032600E881F981AA81BB8118968C918383EC813F
:10033600FD81EE0DFF1D44815581A281B381119689
:100346008D919C91129784179507C0F0AE81BF815D
:10035600AA0DBB1D6C91262F30E011967C917F5F14
:1003660002C0359527957A95E2F7841B950B621B9B
:10037600262F30E02817390708F48FC07082EA81EB
:10038600FB8122818C819D81FC01EE0DFF1D218365
:1003960042C0D80114966D917C9115971296ED91F5
:1003A600FC911397218132812617370758F411964D
:1003B6008C911197811102C0CC926FC08150F801C7
:1003C60081836BC0EE81FF81EA0DFB1D8081482F82
:1003D60050E091819F5F02C0559547959A95E2F747
:1003E600261B370B841B90E08217930760F4D80115
:1003F6006C92EA81FB8123818C819D81FC01EE0D4B
:10040600FF1D21834AC0F8018181811102C0C0828B
:1004160044C0815081832224239433C0F80124816F
:1004260035810280F381E02D8181928182179307C5
:1004360058F5281B390BEE81FF81EA0DFB1D8081E3
:1004460090E0EA81FB81058002C0959587950A9424
:10045600E2F799272817390718F4D801CC9216C065
:10046600F801818181110BC050828C819D81FC0134
:10047600EE0DFF1D0280F381E02DC08210C0815079
:100486008183DD24D3940BC0F801C0828C819D81C9
:10049600FC01EE0DFF1D118202C022242394FFEF02
:1004A6008F1A9F0A83E0A80EB11C52CEE881F9810B
:1004B600808187FF23C040E050E020E030E0EA8101
:1004C600FB81808191812817390798F4EC81FD81A1
:1004D600E40FF51FA281B3818C9180FD05C0908148
:1004E600977F11F081608C932F5F3F4F4A5F5F4F7C
:1004F600E6CFE881F98180818F778083D11007C0AC
:10050600E881F98121106FC080818E7F6EC0EA81FB
:10051600FB8181858823A1F3E881F9818081806848
:100526008083EA81FB818185813051F740E050E08C
:1005360020E030E096E0D92EEA81FB81608171816E
:1005460026173707E8F60C811D81FA01EE0FFF1F0B
:10055600E00FF11F8081982F977FA1F1853811F068
:100566008330B1F5EE80FF80D701A40FB51F129638
:10057600BC90BB2039F180E090E0C12C861797072C
:10058600F8F428173907D1F0D89ED001D99EB00DBE
:100596001124A00FB11FAC91A43011F0A63871F44C
:1005A600DC01AA0FBB1FA80FB91FAE0DBF1D129607
:1005B600AC91BA1203C0CB01CC24C3940196DECF12
:1005C600C11006C00280F381E02D80818E7F05C0B8
:1005D6000280F381E02D8081816080832F5F3F4F11
:1005E6004D5F5F4FA9CF80818160808380914238C3
:1005F60090914338E881F98121813281A9014853DC
:100606005F4F4817590738F4821B930BAA24A3940B
:10061600A3E0BA2E44C08217930710F080E004C10D
:10062600821B930B0197893C9105C0F3EFCF885C41
:100636009109E881F9812181328128533F4F218335
:1006460032832381211196C02481222311F0215067
:100656002483E881F9812581222311F02150258305
:100666008A809B80D40116962C91169721111BC067
:100676008A809B80F4012781211148C0EA81FB8191
:100686002381222361F020E030E0A0E0B0E0EA819F
:10069600FB8140815181A417B50708F46EC0893CDF
:1006A600910528F6BBCF08811981F8012481211113
:1006B600DFCFED90FC9060E070E040E050E04E153A
:1006C6005F05F1F0EC81FD81E60FF71F20812330F5
:1006D60011F0283081F424813581C280D380D6017F
:1006E6001196CD90DC9012972C153D0520F42F5FC6
:1006F6003F4F248335834F5F5F4F6A5F7F4FDFCF66
:10070600F4012681D80114962C93B2CF0881198161
:10071600D80115962C912111B1CFE080F18060E0CF
:1007260070E040E050E04E155F05F1F0EC81FD8190
:10073600E60FF71F2081233011F0283081F4248141
:100746003581C280D380D6011196CD90DC90129768
:10075600C216D30620F421503109248335834F5F16
:100766005F4F6A5F7F4FDFCFF4012781D80115966F
:100776002C9384CF2150238381CFA901440F551F89
:10078600EC81FD81E40FF51F6081653809F047C0F3
:100796006181662319F06150618341C0A0826C813A
:1007A6007D81FB01E40FF51F0280F381E02DB0820D
:1007B600EE81FF81E20FF31FD280DD2081F140E060
:1007C60050E000E010E0EA81FB816081718106174C
:1007D600170728F5EE81FF81E40FF51F6281D61217
:1007E60019C0BA01660F771FEC81FD814F01860E95
:1007F600971EF401E280F380F701F080F0FE0AC054
:10080600F401A082EC81FD81E60FF71F0280F381DF
:10081600E02DB0820F5F1F4F4D5F5F4FD4CF119613
:100826002D5F3F4F34CF8BE0DF91CF911F910F911A
:10083600FF90EF90DF90CF90BF90AF909F908F90FA
:0E0846007F906F905F904F903F902F9008959D
:100854003F924F925F926F927F928F929F92AF924C
:10086400BF92CF92DF92EF92FF920F931F93CF9399
:10087400DF9380914F38882309F448C1A09114383C
:10088400B0911538C0901638D090173800E010E0B9
:1008940060E070E0E12CF12C80E033243394D1E863
:1008A4004D2E88248A94992493946D907C9011976A
:1008B400F30120813181E216F30608F023C1E60139
:1008C400299139916E011496ED91FC911597E60FDB
:1008D400F71F40814C7150E05695479556954795C2
:1008E4004115510521F041305105B9F002C112966C
:1008F400CD91DC911397C00FD11F4E814F709F8112
:10090400491710F4941B01C090E002C03695279556
:100914009A95E2F721833283EDC012964D915C9152
:100924001397400F511FEA010F8002C03695279597
:100934000A94E2F721833283A380B4802115D2E0A4
:100944003D0720F02F5F314091E005C0A401421B18
:10095400530B9A0190E0E3015A80D0E45D1205C084
:1009640036952795992319F009C0992339F04FEF4B
:10097400A416B40631F440828EE007C07724739441
:1009840001C0712C2A30310590F41496ED91FC913C
:100994001597E60FF71F908197FF30821496ED911B
:1009A400FC911597E60FF71FA382B482A3C0E5015B
:1009B400CD2FDD27C295CF709C2FA50144275F70F2
:1009C400652EA501407F5527529542954F704527C6
:1009D4005F7045275A2D5F70A52EC43030F0937098
:1009E400D695C795D695C7959C0F71103CC050E815
:1009F400550D523010F456E007C053E005C095176A
:100A040068F49F5F2F5C3109203D3105C0F706C0B3
:100A1400CFE06C1649F06394255131092631310534
:100A2400B8F7DFE06D120EC0951720F49F5FD5E094
:100A34006D2E08C0CFE06C2E05C04F3049F04F5FDB
:100A44002250310923303105C0F74F3009F065C019
:100A54004FE0641681F1639445E05FC0992361F02F
:100A640091502F5C3109203D3105C0F705C0662047
:100A740041F06A942551310926313105C0F76110DE
:100A84000DC0992321F091505AE0652E07C0612CC6
:100A940005C0442341F0415022503109233031052F
:100AA400C0F7411110C06620E9F16A944AE023308E
:100AB4003105C8F608C059132FC02330310540F161
:100AC4004FE0A42E4FE0943018F0990F990F9950ED
:100AD400C0E14C9FA001112456294A29C92FD0E016
:100AE400DC2FCC27D295D07F4C2B5D2B43835483B2
:100AF40001C0FFCFDFEFED1AFD0A6B5F7F4F085F88
:100B04001F4FD3CE92E090934F380EC083E00CC0B9
:100B14004FE02FE0A22ED7CF4FE02330310508F06D
:100B240073CFD1CF40E0CFCFDF91CF911F910F9101
:100B3400FF90EF90DF90CF90BF90AF909F908F90F9
:0C0B44007F906F905F904F903F9008955D
:100B5000BC01E0911438F09115389C0183E0220F1C
:100B6000331F8A95E1F7A281B381A20FB31F1296BA
:100B70009C91129713968C9190932A0680932B0642
:100B8000A281B381A20FB31F9C9111968C91909377
:100B900026068093270695E0969FA001979F500D0B
:100BA0001124A481B581A40FB51F13968C91809355
:100BB0001A06A481B581A40FB51F14968C91809359
:100BC0001B06A481B581A40FB51F8C9181FD9C9358
:100BD00084819581DC01A40FB51F8C918C7169F41F
:100BE000A281B381A20FB31F1696AC91A295AF70EC
:100BF000B0E0A05EBB468C9101C08FE380931C06E1
:100C0000A281B381A20FB31F14968C918B3110F483
:100C10008C5F01C08FE180930506A281B381A20F92
:100C2000B31F17968C9180930106A281B381A20F06
:100C3000B31F15968C9182958F70809319068281CF
:100C40009381FC01E20FF31F85818F708061809397
:100C500002068091180683608093180681E88093CD
:0A0C6000000681E080930806089565
:100C6A000E94F4090E94AF0910924D3880E00E9458
:100C7A00780784E08093410400E414E0C4E0D1E002
:100C8A0080E090E00E94A00988238CF4F801C583D3
:100C9A0087E893E10197F1F700C00000809140389E
:100CAA0090914138893EE3E09E07D0F120C0F801D7
:100CBA00C68387E893E10197F1F700C000008091AD
:100CCA004C38882369F080914D388F5F80934D3876
:100CDA000E94780780914D388D3010F010924D386F
:100CEA0010924C381092403810924138C9CF01976F
:100CFA008093403890934138EFE4F3EC3197F1F761
:100D0A0000C0000080914D388F5F80934D380E945B
:100D1A00780780914D388D3058F010924D3808C0C0
:100D2A00C39730F080914C38811102C0D0934C386F
:100D3A008091403890914138019680934038909341
:040D4A0041389ECFBF
:100D4E00CF92DF92FF920F931F93CF93DF93EC011D
:100D5E00AE81BF81EB01CC0FDD1FC60FD71FCA0FAF
:100D6E00DB1FFA80FC0144815581E6E0E69F90018D
:100D7E00E79F300D11248A01020F131FF801228103
:100D8E003381F90121813281F80104811581201B03
:100D9E00310BE8812E1B3109EC01EA81FB810081C8
:100DAE001181FA0140E050E04017510739F1461722
:100DBE005707F9F012968C911297F8121AC080818B
:100DCE0085588230E8F0C480D58082819381EC0111
:100DDE0089819A81C816D90660F48C199D09CC9127
:100DEE00D0E0C817D90728F48C1B9D0B281739079C
:100DFE0038F04F5F5F4F13963696D6CF80E001C026
:100E0E0081E0DF91CF911F910F91FF90DF90CF90F6
:020E1E00089535
:100E200061157105A1F1009791F120914F382223AE
:100E300081F1243081F180931438909315386093B8
:100E400044387093453810921806DC01ED91FC91FE
:100E50002281203439F420EC2093180620911806C2
:100E6000206205C0203841F42091180628622093A2
:100E7000180610921E0613C0213879F42091180626
:100E800028622093180626E820931E0608C08BE0EF
:100E9000089583E0089581E0089582E00895109216
:100EA0000006DC01ED91FC918481803108F080E145
:100EB0008093030681E080930B0680930A0680935B
:100EC0004E3810924638109247380E947C088111A3
:100ED0000BC084E080934F3880914638909147381A
:100EE0000E94A80580E0089582E080934F3808951D
:100EF000E82F8EEF809306048EE38093260481E032
:100F0000809346048E2F90E0FC013197EC30F10580
:100F1000A0F5E25CFF4F0C94030A80E18093050486
:100F2000089588E080930504089584E08093050483
:100F3000089588E080932504089580E18093250436
:100F4000089580E280932504089580E88093050445
:100F5000089580E480930504089581E0809345041A
:100F6000089582E080932504089584E08093250409
:100F7000089582E080930504089580E2809305043B
:020F80000895D2
:100F8200CF93DF930097E1F1DC01ED91FC91A08119
:100F9200B18160E070E040E050E020E030E04A17CC
:100FA2005B0799F0EC01EA81FB81E60FF71FC08134
:100FB200D1810280F381E02DEC2BFD2B2E2B3F2BD8
:100FC2004F5F5F4F685F7F4FEACF21153105D1F048
:100FD20080914F38811108C0209322063093230656
:100FE20081E080934F380AC080912206822B809341
:100FF200220680912306832B8093230680E003C080
:0C1002008BE001C082E0DF91CF910895E7
:10100E00FC01892BD1F1A081B1818D919C91119719
:10101E0086179707A0F112969C910480F581E02D1A
:10102E00903459F485E0869FD001879FB00D11242E
:10103E00AE0FBF1F84E392E00DC09058923080F443
:10104E0085E0869FD001879FB00D1124AE0FBF1F84
:10105E0087E695E013968D939C93149780E001C0DC
:10106E0082E095E0969F9001979F300D1124E20F3C
:10107E00F31F90819260908308958BE0089582E033
:02108E000895C3
:1010900080914B38813051F469E07AE082E398E343
:1010A0000E941007811102C010924B3880914A387B
:1010B000813009F510924A380E942A0481110AC031
:1010C00082E298E30E948300882339F082E08093D3
:1010D000483803C081E080934838E0912238F0918D
:1010E00023388081882324F481E080934B3808954D
:0810F00081E080934938089566
:1010F8008091463890914738A0911438B0911538AE
:10110800ED91FC9111974081518125E0289FB00114
:10111800299F700D112420E030E084179507A8F46A
:101128001496ED91FC911597E20FF31FE60FF71F48
:10113800E0812B5F3F4FE0FD02C00196EECF809328
:1011480046389093473880E00895109246381092B8
:06115800473881E0089514
:10115E00109200064091100650911106809146386B
:10116E00909147389C01220F331FE0911638F09171
:10117E001738E20FF31F4083518301968093463850
:10118E00909347380E947C08811109C084E08093B7
:10119E004F3880914638909147380C94A805E091CD
:0811AE004438F0914538099422
:1011B6001F920F920FB60F9211242F933F934F93C6
:1011C6005F936F937F938F939F93AF93BF93EF93A9
:1011D600FF930E948E090E94480882E08093430193
:1011E600FF91EF91BF91AF919F918F917F916F91F9
:1011F6005F914F913F912F910F900FBE0F901F90CF
:02120600189539
:1012080080E20E94CB09E0E3F4E08081877F80835D
:101218008081887F8460808382E398E30E94C1078D
:101228008CE098E30E94E10960E070E082E398E3D3
:101238000E946F0960E070E082E398E30E9407086B
:1012480047E058E360E082E298E30E94500908957D
:101258001F920F920FB60F9211242F933F934F9323
:101268005F936F937F938F939F93AF93BF93EF9306
:10127800FF930E94AF08FF91EF91BF91AF919F91AB
:101288008F917F916F915F914F913F912F910F9027
:081298000FBE0F901F90189586
:1012A0000097D9F041155105C1F026E0629FB001C9
:1012B0001124DC011496ED91FC911597E60FF71FB0
:1012C00021E0208314968D919C911597FC01E60FE7
:0E12D000F71F4283538380E008958BE008955A
:1012DE000097C9F0DC01ED91FC91119720813181CD
:1012EE002617370790F045E0469F9001479F300D37
:1012FE0011241496ED91FC911597E20FF31F81E0E6
:0E130E00808380E008958BE0089582E00895CA
:10131C00809106388F5F843118F4809306380895D5
:10132C001092063881E080934B3884E190E00E9463
:04133C00D609089531
:101340009C01220F331F820F931F880F991FE0917A
:0E1350002638F0912738E80FF91F80810895A4
:10135E008EEF809301048EE380932104E0E4F4E0A9
:0E136E0081E0818382E082838CE08183089598
:10137C00E0E4F1E081818111FDCFE0E4F1E081E86E
:0A138C00808382E0828380E00895F0
:10139600E0E4F1E0918192FDFDCF90E080934A0177
:0613A60090934B01089535
:1013AC002091423830914338820F931F80934238FA
:0613BC00909343380895F0
:1013C200009731F0809316389093173880E0089593
:0413D2008BE008950F
:1013D60088ED84BFE0E6F0E0108284BF118280E0F1
:0213E600089568
:1013E80081E0809341040E94FC090E940409089549
:0E13F8000E94EB090E94BE090E940D0A089592
:0C140600EE0FFF1F0590F491E02D0994FB
:0814120081E080934A3808953F
:06141A00789480E00895C3
:061420003F1C0B05030157
:041426000C94000022
:0A142A000100040005001405140180
:08143400003818380E383D386D
:08143C0000002000000500047F
:0614440038382A38073891
:05144A000100803000EC
:03144F0014010085
:011452000198
:00000001FF
